{"abi":[{"type":"constructor","inputs":[],"stateMutability":"nonpayable"},{"type":"receive","stateMutability":"payable"},{"type":"function","name":"addQuiz","inputs":[{"name":"q","type":"tuple","internalType":"struct Quiz.Quiz_item","components":[{"name":"id","type":"uint256","internalType":"uint256"},{"name":"question","type":"string","internalType":"string"},{"name":"answer","type":"string","internalType":"string"},{"name":"min_bet","type":"uint256","internalType":"uint256"},{"name":"max_bet","type":"uint256","internalType":"uint256"}]}],"outputs":[],"stateMutability":"nonpayable"},{"type":"function","name":"betToPlay","inputs":[{"name":"quizId","type":"uint256","internalType":"uint256"}],"outputs":[],"stateMutability":"payable"},{"type":"function","name":"bets","inputs":[{"name":"","type":"uint256","internalType":"uint256"},{"name":"","type":"address","internalType":"address"}],"outputs":[{"name":"","type":"uint256","internalType":"uint256"}],"stateMutability":"view"},{"type":"function","name":"claim","inputs":[],"outputs":[],"stateMutability":"nonpayable"},{"type":"function","name":"getAnswer","inputs":[{"name":"quizId","type":"uint256","internalType":"uint256"}],"outputs":[{"name":"","type":"string","internalType":"string"}],"stateMutability":"view"},{"type":"function","name":"getQuiz","inputs":[{"name":"quizId","type":"uint256","internalType":"uint256"}],"outputs":[{"name":"","type":"tuple","internalType":"struct Quiz.Quiz_item","components":[{"name":"id","type":"uint256","internalType":"uint256"},{"name":"question","type":"string","internalType":"string"},{"name":"answer","type":"string","internalType":"string"},{"name":"min_bet","type":"uint256","internalType":"uint256"},{"name":"max_bet","type":"uint256","internalType":"uint256"}]}],"stateMutability":"view"},{"type":"function","name":"getQuizNum","inputs":[],"outputs":[{"name":"","type":"uint256","internalType":"uint256"}],"stateMutability":"view"},{"type":"function","name":"solveQuiz","inputs":[{"name":"quizId","type":"uint256","internalType":"uint256"},{"name":"ans","type":"string","internalType":"string"}],"outputs":[{"name":"","type":"bool","internalType":"bool"}],"stateMutability":"nonpayable"},{"type":"function","name":"vault_balance","inputs":[],"outputs":[{"name":"","type":"uint256","internalType":"uint256"}],"stateMutability":"view"}],"bytecode":{"object":"0x608060405234801561000f575f5ffd5b5061003f6040518060a001604052805f815260200160608152602001606081526020015f81526020015f81525090565b60018082526040805180820182526005815264312b313d3f60d81b6020808301919091528085019190915281518083018352928352601960f91b90830152820152670de0b6b3a76400006060820152671bc16d674ec8000060808201526100a5816100ab565b50610305565b5f1933016100ff5760405162461bcd60e51b815260206004820152601660248201527f596f752068617665206e6f20617574686f726974792e00000000000000000000604482015260640160405180910390fd5b600280546001810182555f91909152815160059091027f405787fa12a823e0f2b7631cc41b3ba8828b3321ca811111fa75cd3aa3bb5ace810191825560208301518392917f405787fa12a823e0f2b7631cc41b3ba8828b3321ca811111fa75cd3aa3bb5acf0190610170908261024b565b5060408201516002820190610185908261024b565b5060608201516003808301919091556080909201516004909101555f80546001908101825582540182555250565b634e487b7160e01b5f52604160045260245ffd5b600181811c908216806101db57607f821691505b6020821081036101f957634e487b7160e01b5f52602260045260245ffd5b50919050565b601f82111561024657805f5260205f20601f840160051c810160208510156102245750805b601f840160051c820191505b81811015610243575f8155600101610230565b50505b505050565b81516001600160401b03811115610264576102646101b3565b6102788161027284546101c7565b846101ff565b6020601f8211600181146102aa575f83156102935750848201515b5f19600385901b1c1916600184901b178455610243565b5f84815260208120601f198516915b828110156102d957878501518255602094850194600190920191016102b9565b50848210156102f657868401515f19600387901b60f8161c191681555b50505050600190811b01905550565b611046806103125f395ff3fe608060405260043610610087575f3560e01c8063a3f7e09611610057578063a3f7e09614610129578063b5ab58dc14610155578063c0da916f14610181578063f101b3f114610195578063f644b3bb146101b4575f5ffd5b80634e71d92d146100a957806354c63f82146100bf5780637487361f146100d25780638f7b096114610106575f5ffd5b366100a5573460015f82825461009d9190610b3c565b925050819055005b5f5ffd5b3480156100b4575f5ffd5b506100bd6101d3565b005b6100bd6100cd366004610b4f565b610324565b3480156100dd575f5ffd5b506100f16100ec366004610c2e565b6105b0565b60405190151581526020015b60405180910390f35b348015610111575f5ffd5b5061011b60015481565b6040519081526020016100fd565b348015610134575f5ffd5b50610148610143366004610b4f565b61071a565b6040516100fd9190610ca0565b348015610160575f5ffd5b5061017461016f366004610b4f565b61092f565b6040516100fd9190610d03565b34801561018c575f5ffd5b5060025461011b565b3480156101a0575f5ffd5b506100bd6101af366004610d1c565b610a01565b3480156101bf575f5ffd5b5061011b6101ce366004610dd3565b610afe565b5f805b6002548110156102b157600381815481106101f3576101f3610e0c565b5f91825260208083203384529091019052604090205460ff16156102a9575f6003828154811061022557610225610e0c565b5f918252602080832033845291909101905260408120805460ff19169215159290921790915580548290811061025d5761025d610e0c565b5f91825260208083203384529091019052604090205461027d9083610b3c565b91505f5f828154811061029257610292610e0c565b5f9182526020808320338452909101905260409020555b6001016101d6565b50336102be826002610e20565b6040515f81818185875af1925050503d805f81146102f7576040519150601f19603f3d011682016040523d82523d5f602084013e6102fc565b606091505b50505080600261030c9190610e20565b60015f82825461031c9190610e37565b909155505050565b5f8111801561033557506002548111155b15610565575f6002610348600184610e37565b8154811061035857610358610e0c565b905f5260205f2090600502016040518060a00160405290815f820154815260200160018201805461038890610e4a565b80601f01602080910402602001604051908101604052809291908181526020018280546103b490610e4a565b80156103ff5780601f106103d6576101008083540402835291602001916103ff565b820191905f5260205f20905b8154815290600101906020018083116103e257829003601f168201915b5050505050815260200160028201805461041890610e4a565b80601f016020809104026020016040519081016040528092919081815260200182805461044490610e4a565b801561048f5780601f106104665761010080835404028352916020019161048f565b820191905f5260205f20905b81548152906001019060200180831161047257829003601f168201915b50505050508152602001600382015481526020016004820154815250509050806060015134101580156104c6575080608001513411155b6105175760405162461bcd60e51b815260206004820152601f60248201527f4f7574206f662072616e6765206f662062657474696e6720616d6f756e742e0060448201526064015b60405180910390fd5b345f610524600185610e37565b8154811061053457610534610e0c565b5f91825260208083203384529091019052604081208054909190610559908490610b3c565b909155506105ad915050565b60405162461bcd60e51b815260206004820152601d60248201527f5468657265206973206e6f207175697a20666f7220746861742069642e000000604482015260640161050e565b50565b5f5f831180156105c257506002548311155b156105655760026105d4600185610e37565b815481106105e4576105e4610e0c565b905f5260205f2090600502016002016040516020016106039190610e82565b604051602081830303815290604052805190602001208260405160200161062a9190610ef3565b604051602081830303815290604052805190602001200361069057600160036106538286610e37565b8154811061066357610663610e0c565b5f918252602080832033845291909101905260409020805460ff1916911515919091179055506001610714565b5f61069c600185610e37565b815481106106ac576106ac610e0c565b5f91825260208083203384529091019052604081205460018054919290916106d5908490610b3c565b909155505f9050806106e8600186610e37565b815481106106f8576106f8610e0c565b5f91825260208083203384529091019052604081209190915590505b92915050565b6107496040518060a001604052805f815260200160608152602001606081526020015f81526020015f81525090565b5f6040518060a001604052805f815260200160405180602001604052805f815250815260200160405180602001604052805f81525081526020015f81526020015f81525090505f831180156107a057506002548311155b156107145760026107b2600185610e37565b815481106107c2576107c2610e0c565b905f5260205f2090600502016040518060a00160405290815f82015481526020016001820180546107f290610e4a565b80601f016020809104026020016040519081016040528092919081815260200182805461081e90610e4a565b80156108695780601f1061084057610100808354040283529160200191610869565b820191905f5260205f20905b81548152906001019060200180831161084c57829003601f168201915b5050505050815260200160028201805461088290610e4a565b80601f01602080910402602001604051908101604052809291908181526020018280546108ae90610e4a565b80156108f95780601f106108d0576101008083540402835291602001916108f9565b820191905f5260205f20905b8154815290600101906020018083116108dc57829003601f168201915b50505091835250506003820154602080830191909152600490920154604091820152805191820181525f82528201529392505050565b60605f8211801561094257506002548211155b15610565576002610954600184610e37565b8154811061096457610964610e0c565b905f5260205f209060050201600201805461097e90610e4a565b80601f01602080910402602001604051908101604052809291908181526020018280546109aa90610e4a565b80156109f55780601f106109cc576101008083540402835291602001916109f5565b820191905f5260205f20905b8154815290600101906020018083116109d857829003601f168201915b50505050509050919050565b5f193301610a4a5760405162461bcd60e51b81526020600482015260166024820152752cb7ba903430bb329037379030baba3437b934ba3c9760511b604482015260640161050e565b600280546001810182555f91909152815160059091027f405787fa12a823e0f2b7631cc41b3ba8828b3321ca811111fa75cd3aa3bb5ace810191825560208301518392917f405787fa12a823e0f2b7631cc41b3ba8828b3321ca811111fa75cd3aa3bb5acf0190610abb9082610f55565b5060408201516002820190610ad09082610f55565b5060608201516003808301919091556080909201516004909101555f80546001908101825582540182555250565b5f8281548110610b0c575f80fd5b905f5260205f2001602052805f5260405f205f91509150505481565b634e487b7160e01b5f52601160045260245ffd5b8082018082111561071457610714610b28565b5f60208284031215610b5f575f5ffd5b5035919050565b634e487b7160e01b5f52604160045260245ffd5b60405160a0810167ffffffffffffffff81118282101715610b9d57610b9d610b66565b60405290565b5f82601f830112610bb2575f5ffd5b813567ffffffffffffffff811115610bcc57610bcc610b66565b604051601f8201601f19908116603f0116810167ffffffffffffffff81118282101715610bfb57610bfb610b66565b604052818152838201602001851015610c12575f5ffd5b816020850160208301375f918101602001919091529392505050565b5f5f60408385031215610c3f575f5ffd5b82359150602083013567ffffffffffffffff811115610c5c575f5ffd5b610c6885828601610ba3565b9150509250929050565b5f81518084528060208401602086015e5f602082860101526020601f19601f83011685010191505092915050565b60208152815160208201525f602083015160a06040840152610cc560c0840182610c72565b90506040840151601f19848303016060850152610ce28282610c72565b91505060608401516080840152608084015160a08401528091505092915050565b602081525f610d156020830184610c72565b9392505050565b5f60208284031215610d2c575f5ffd5b813567ffffffffffffffff811115610d42575f5ffd5b820160a08185031215610d53575f5ffd5b610d5b610b7a565b81358152602082013567ffffffffffffffff811115610d78575f5ffd5b610d8486828501610ba3565b602083015250604082013567ffffffffffffffff811115610da3575f5ffd5b610daf86828501610ba3565b60408301525060608281013590820152608091820135918101919091529392505050565b5f5f60408385031215610de4575f5ffd5b8235915060208301356001600160a01b0381168114610e01575f5ffd5b809150509250929050565b634e487b7160e01b5f52603260045260245ffd5b808202811582820484141761071457610714610b28565b8181038181111561071457610714610b28565b600181811c90821680610e5e57607f821691505b602082108103610e7c57634e487b7160e01b5f52602260045260245ffd5b50919050565b5f5f8354610e8f81610e4a565b600182168015610ea65760018114610ebb57610ee8565b60ff1983168652811515820286019350610ee8565b865f5260205f205f5b83811015610ee057815488820152600190910190602001610ec4565b505081860193505b509195945050505050565b5f82518060208501845e5f920191825250919050565b601f821115610f5057805f5260205f20601f840160051c81016020851015610f2e5750805b601f840160051c820191505b81811015610f4d575f8155600101610f3a565b50505b505050565b815167ffffffffffffffff811115610f6f57610f6f610b66565b610f8381610f7d8454610e4a565b84610f09565b6020601f821160018114610fb5575f8315610f9e5750848201515b5f19600385901b1c1916600184901b178455610f4d565b5f84815260208120601f198516915b82811015610fe45787850151825560209485019460019092019101610fc4565b508482101561100157868401515f19600387901b60f8161c191681555b50505050600190811b0190555056fea2646970667358221220a47efda52fd59f0e829f3349b489c50300f3bbebc5bbb1e502c62cd5e707f08464736f6c634300081c0033","linkReferences":{}},"methodIdentifiers":{"addQuiz((uint256,string,string,uint256,uint256))":"f101b3f1","betToPlay(uint256)":"54c63f82","bets(uint256,address)":"f644b3bb","claim()":"4e71d92d","getAnswer(uint256)":"b5ab58dc","getQuiz(uint256)":"a3f7e096","getQuizNum()":"c0da916f","solveQuiz(uint256,string)":"7487361f","vault_balance()":"8f7b0961"},"id":18}