{"abi":[{"type":"constructor","inputs":[],"stateMutability":"nonpayable"},{"type":"receive","stateMutability":"payable"},{"type":"function","name":"addQuiz","inputs":[{"name":"q","type":"tuple","internalType":"struct Quiz.Quiz_item","components":[{"name":"id","type":"uint256","internalType":"uint256"},{"name":"question","type":"string","internalType":"string"},{"name":"answer","type":"string","internalType":"string"},{"name":"min_bet","type":"uint256","internalType":"uint256"},{"name":"max_bet","type":"uint256","internalType":"uint256"}]}],"outputs":[],"stateMutability":"nonpayable"},{"type":"function","name":"betToPlay","inputs":[{"name":"quizId","type":"uint256","internalType":"uint256"}],"outputs":[],"stateMutability":"payable"},{"type":"function","name":"bets","inputs":[{"name":"","type":"uint256","internalType":"uint256"},{"name":"","type":"address","internalType":"address"}],"outputs":[{"name":"","type":"uint256","internalType":"uint256"}],"stateMutability":"view"},{"type":"function","name":"claim","inputs":[],"outputs":[],"stateMutability":"nonpayable"},{"type":"function","name":"getAnswer","inputs":[{"name":"quizId","type":"uint256","internalType":"uint256"}],"outputs":[{"name":"","type":"string","internalType":"string"}],"stateMutability":"view"},{"type":"function","name":"getQuiz","inputs":[{"name":"quizId","type":"uint256","internalType":"uint256"}],"outputs":[{"name":"","type":"tuple","internalType":"struct Quiz.Quiz_item","components":[{"name":"id","type":"uint256","internalType":"uint256"},{"name":"question","type":"string","internalType":"string"},{"name":"answer","type":"string","internalType":"string"},{"name":"min_bet","type":"uint256","internalType":"uint256"},{"name":"max_bet","type":"uint256","internalType":"uint256"}]}],"stateMutability":"view"},{"type":"function","name":"getQuizNum","inputs":[],"outputs":[{"name":"","type":"uint256","internalType":"uint256"}],"stateMutability":"view"},{"type":"function","name":"solveQuiz","inputs":[{"name":"quizId","type":"uint256","internalType":"uint256"},{"name":"ans","type":"string","internalType":"string"}],"outputs":[{"name":"","type":"bool","internalType":"bool"}],"stateMutability":"nonpayable"},{"type":"function","name":"vault_balance","inputs":[],"outputs":[{"name":"","type":"uint256","internalType":"uint256"}],"stateMutability":"view"}],"bytecode":{"object":"0x608060405234801561000f575f5ffd5b50600480546001600160a01b031916331790556040805160a081018252606060208083018281528385018381525f938501848152608086019485526001808752875180890189526005815264312b313d3f60d81b818701529093528651808801909752918652601960f91b92860192909252939052670de0b6b3a7640000909252671bc16d674ec800009091526100a5816100ab565b5061030f565b6004546001600160a01b031633146101095760405162461bcd60e51b815260206004820152601660248201527f596f752068617665206e6f20617574686f726974792e00000000000000000000604482015260640160405180910390fd5b600280546001810182555f91909152815160059091027f405787fa12a823e0f2b7631cc41b3ba8828b3321ca811111fa75cd3aa3bb5ace810191825560208301518392917f405787fa12a823e0f2b7631cc41b3ba8828b3321ca811111fa75cd3aa3bb5acf019061017a9082610255565b506040820151600282019061018f9082610255565b5060608201516003808301919091556080909201516004909101555f80546001908101825582540182555250565b634e487b7160e01b5f52604160045260245ffd5b600181811c908216806101e557607f821691505b60208210810361020357634e487b7160e01b5f52602260045260245ffd5b50919050565b601f82111561025057805f5260205f20601f840160051c8101602085101561022e5750805b601f840160051c820191505b8181101561024d575f815560010161023a565b50505b505050565b81516001600160401b0381111561026e5761026e6101bd565b6102828161027c84546101d1565b84610209565b6020601f8211600181146102b4575f831561029d5750848201515b5f19600385901b1c1916600184901b17845561024d565b5f84815260208120601f198516915b828110156102e357878501518255602094850194600190920191016102c3565b508482101561030057868401515f19600387901b60f8161c191681555b50505050600190811b01905550565b61108f8061031c5f395ff3fe608060405260043610610087575f3560e01c8063a3f7e09611610057578063a3f7e09614610129578063b5ab58dc14610155578063c0da916f14610181578063f101b3f114610195578063f644b3bb146101b4575f5ffd5b80634e71d92d146100a957806354c63f82146100bf5780637487361f146100d25780638f7b096114610106575f5ffd5b366100a5573460015f82825461009d9190610b4e565b925050819055005b5f5ffd5b3480156100b4575f5ffd5b506100bd6101d3565b005b6100bd6100cd366004610b61565b610318565b3480156100dd575f5ffd5b506100f16100ec366004610c40565b610571565b60405190151581526020015b60405180910390f35b348015610111575f5ffd5b5061011b60015481565b6040519081526020016100fd565b348015610134575f5ffd5b50610148610143366004610b61565b6106f2565b6040516100fd9190610cb2565b348015610160575f5ffd5b5061017461016f366004610b61565b610920565b6040516100fd9190610d15565b34801561018c575f5ffd5b5060025461011b565b3480156101a0575f5ffd5b506100bd6101af366004610d2e565b610a09565b3480156101bf575f5ffd5b5061011b6101ce366004610de5565b610b10565b5f805b6002548110156102b157600381815481106101f3576101f3610e1e565b5f91825260208083203384529091019052604090205460ff16156102a9575f6003828154811061022557610225610e1e565b5f918252602080832033845291909101905260408120805460ff19169215159290921790915580548290811061025d5761025d610e1e565b5f91825260208083203384529091019052604090205461027d9083610b4e565b91505f5f828154811061029257610292610e1e565b5f9182526020808320338452909101905260409020555b6001016101d6565b50336102be826002610e32565b6040515f81818185875af1925050503d805f81146102f7576040519150601f19603f3d011682016040523d82523d5f602084013e6102fc565b606091505b5050508060015f8282546103109190610e49565b909155505050565b5f8111801561032957506002548111155b61034e5760405162461bcd60e51b815260040161034590610e5c565b60405180910390fd5b5f600261035c600184610e49565b8154811061036c5761036c610e1e565b905f5260205f2090600502016040518060a00160405290815f820154815260200160018201805461039c90610e93565b80601f01602080910402602001604051908101604052809291908181526020018280546103c890610e93565b80156104135780601f106103ea57610100808354040283529160200191610413565b820191905f5260205f20905b8154815290600101906020018083116103f657829003601f168201915b5050505050815260200160028201805461042c90610e93565b80601f016020809104026020016040519081016040528092919081815260200182805461045890610e93565b80156104a35780601f1061047a576101008083540402835291602001916104a3565b820191905f5260205f20905b81548152906001019060200180831161048657829003601f168201915b50505050508152602001600382015481526020016004820154815250509050806060015134101580156104da575080608001513411155b6105265760405162461bcd60e51b815260206004820152601f60248201527f4f7574206f662072616e6765206f662062657474696e6720616d6f756e742e006044820152606401610345565b345f610533600185610e49565b8154811061054357610543610e1e565b5f91825260208083203384529091019052604081208054909190610568908490610b4e565b90915550505050565b5f5f8311801561058357506002548311155b61059f5760405162461bcd60e51b815260040161034590610e5c565b60026105ac600185610e49565b815481106105bc576105bc610e1e565b905f5260205f2090600502016002016040516020016105db9190610ecb565b60405160208183030381529060405280519060200120826040516020016106029190610f3c565b6040516020818303038152906040528051906020012003610668576001600361062b8286610e49565b8154811061063b5761063b610e1e565b5f918252602080832033845291909101905260409020805460ff19169115159190911790555060016106ec565b5f610674600185610e49565b8154811061068457610684610e1e565b5f91825260208083203384529091019052604081205460018054919290916106ad908490610b4e565b909155505f9050806106c0600186610e49565b815481106106d0576106d0610e1e565b5f91825260208083203384529091019052604081209190915590505b92915050565b6107216040518060a001604052805f815260200160608152602001606081526020015f81526020015f81525090565b5f8211801561073257506002548211155b61074e5760405162461bcd60e51b815260040161034590610e5c565b5f6040518060a001604052805f815260200160405180602001604052805f815250815260200160405180602001604052805f81525081526020015f81526020015f815250905060026001846107a39190610e49565b815481106107b3576107b3610e1e565b905f5260205f2090600502016040518060a00160405290815f82015481526020016001820180546107e390610e93565b80601f016020809104026020016040519081016040528092919081815260200182805461080f90610e93565b801561085a5780601f106108315761010080835404028352916020019161085a565b820191905f5260205f20905b81548152906001019060200180831161083d57829003601f168201915b5050505050815260200160028201805461087390610e93565b80601f016020809104026020016040519081016040528092919081815260200182805461089f90610e93565b80156108ea5780601f106108c1576101008083540402835291602001916108ea565b820191905f5260205f20905b8154815290600101906020018083116108cd57829003601f168201915b50505091835250506003820154602080830191909152600490920154604091820152805191820181525f82528201529392505050565b60605f8211801561093357506002548211155b61094f5760405162461bcd60e51b815260040161034590610e5c565b600261095c600184610e49565b8154811061096c5761096c610e1e565b905f5260205f209060050201600201805461098690610e93565b80601f01602080910402602001604051908101604052809291908181526020018280546109b290610e93565b80156109fd5780601f106109d4576101008083540402835291602001916109fd565b820191905f5260205f20905b8154815290600101906020018083116109e057829003601f168201915b50505050509050919050565b6004546001600160a01b03163314610a5c5760405162461bcd60e51b81526020600482015260166024820152752cb7ba903430bb329037379030baba3437b934ba3c9760511b6044820152606401610345565b600280546001810182555f91909152815160059091027f405787fa12a823e0f2b7631cc41b3ba8828b3321ca811111fa75cd3aa3bb5ace810191825560208301518392917f405787fa12a823e0f2b7631cc41b3ba8828b3321ca811111fa75cd3aa3bb5acf0190610acd9082610f9e565b5060408201516002820190610ae29082610f9e565b5060608201516003808301919091556080909201516004909101555f80546001908101825582540182555250565b5f8281548110610b1e575f80fd5b905f5260205f2001602052805f5260405f205f91509150505481565b634e487b7160e01b5f52601160045260245ffd5b808201808211156106ec576106ec610b3a565b5f60208284031215610b71575f5ffd5b5035919050565b634e487b7160e01b5f52604160045260245ffd5b60405160a0810167ffffffffffffffff81118282101715610baf57610baf610b78565b60405290565b5f82601f830112610bc4575f5ffd5b813567ffffffffffffffff811115610bde57610bde610b78565b604051601f8201601f19908116603f0116810167ffffffffffffffff81118282101715610c0d57610c0d610b78565b604052818152838201602001851015610c24575f5ffd5b816020850160208301375f918101602001919091529392505050565b5f5f60408385031215610c51575f5ffd5b82359150602083013567ffffffffffffffff811115610c6e575f5ffd5b610c7a85828601610bb5565b9150509250929050565b5f81518084528060208401602086015e5f602082860101526020601f19601f83011685010191505092915050565b60208152815160208201525f602083015160a06040840152610cd760c0840182610c84565b90506040840151601f19848303016060850152610cf48282610c84565b91505060608401516080840152608084015160a08401528091505092915050565b602081525f610d276020830184610c84565b9392505050565b5f60208284031215610d3e575f5ffd5b813567ffffffffffffffff811115610d54575f5ffd5b820160a08185031215610d65575f5ffd5b610d6d610b8c565b81358152602082013567ffffffffffffffff811115610d8a575f5ffd5b610d9686828501610bb5565b602083015250604082013567ffffffffffffffff811115610db5575f5ffd5b610dc186828501610bb5565b60408301525060608281013590820152608091820135918101919091529392505050565b5f5f60408385031215610df6575f5ffd5b8235915060208301356001600160a01b0381168114610e13575f5ffd5b809150509250929050565b634e487b7160e01b5f52603260045260245ffd5b80820281158282048414176106ec576106ec610b3a565b818103818111156106ec576106ec610b3a565b6020808252601d908201527f5468657265206973206e6f207175697a20666f7220746861742069642e000000604082015260600190565b600181811c90821680610ea757607f821691505b602082108103610ec557634e487b7160e01b5f52602260045260245ffd5b50919050565b5f5f8354610ed881610e93565b600182168015610eef5760018114610f0457610f31565b60ff1983168652811515820286019350610f31565b865f5260205f205f5b83811015610f2957815488820152600190910190602001610f0d565b505081860193505b509195945050505050565b5f82518060208501845e5f920191825250919050565b601f821115610f9957805f5260205f20601f840160051c81016020851015610f775750805b601f840160051c820191505b81811015610f96575f8155600101610f83565b50505b505050565b815167ffffffffffffffff811115610fb857610fb8610b78565b610fcc81610fc68454610e93565b84610f52565b6020601f821160018114610ffe575f8315610fe75750848201515b5f19600385901b1c1916600184901b178455610f96565b5f84815260208120601f198516915b8281101561102d578785015182556020948501946001909201910161100d565b508482101561104a57868401515f19600387901b60f8161c191681555b50505050600190811b0190555056fea2646970667358221220378f1156d3218d10279831ab7036ba14a877d33c859d460f00717ae17f46107b64736f6c634300081c0033","linkReferences":{}},"methodIdentifiers":{"addQuiz((uint256,string,string,uint256,uint256))":"f101b3f1","betToPlay(uint256)":"54c63f82","bets(uint256,address)":"f644b3bb","claim()":"4e71d92d","getAnswer(uint256)":"b5ab58dc","getQuiz(uint256)":"a3f7e096","getQuizNum()":"c0da916f","solveQuiz(uint256,string)":"7487361f","vault_balance()":"8f7b0961"},"id":18}